:100000000C9436010C9455010C9455010C94550137
:100010000C9455010C9455010C9455010C94550108
:100020000C9455010C9455010C9455010C945501F8
:100030000C9455010C9455010C9455010C945501E8
:100040000C9455010C9455010C9455010C945501D8
:100050000C9455010C9455010C9455010C945501C8
:100060000C9455010C9455010C9455010C945501B8
:100070000C9455010C9455010C9455010C945501A8
:100080000C9455010C9455010C945501000000008E
:100090000000005F00000007000700147F147F14B9
:1000A000242A7F2A122313086462364955225000FD
:1000B00005030000001C2241000041221C0014081E
:1000C0003E081408083E08080050300000080808E0
:1000D0000808006060000020100804023E514945F5
:1000E0003E00427F400042615149462141454B312B
:1000F0001814127F1027454545393C4A49493001BB
:10010000710905033649494936064949291E003611
:100110003600000056360000081422410014141462
:100120001414004122140802015109063249794190
:100130003E7E1111117E7F494949363E414141229F
:100140007F4141221C7F494949417F090909013EFC
:100150004149497A7F0808087F00417F41002040DB
:10016000413F017F081422417F404040407F020C04
:10017000027F7F0408107F3E4141413E7F0909090B
:10018000063E4151215E7F091929464649494931B8
:1001900001017F01013F4040403F1F2040201F3FA1
:1001A0004038403F63140814630708700807615122
:1001B000494543007F4141000204081020004141AD
:1001C0007F0004020102044040404040000102045C
:1001D0000020545454787F484444383844444420E0
:1001E000384444487F3854545418087E0901020C9E
:1001F0005252523E7F0804047800447D4000204063
:10020000443D007F1028440000417F40007C0418DA
:1002100004787C0804047838444444387C1414146A
:1002200008081414187C7C0804040848545454200A
:10023000043F4440203C4040207C1C2040201C3C8B
:100240004030403C44281028440C5050503C4464FA
:10025000544C44000836410000007F000000413645
:1002600008001008081008000000000011241FBE3C
:10027000CFEFD0E4DEBFCDBF13E0A0E0B1E0EEE20F
:10028000FFE000E00BBF02C007900D92AC31B10758
:10029000D9F723E0ACE1B3E001C01D92AE31B20763
:1002A000E1F70E94CA020C9495070C940000482FB5
:1002B000592F30E020E002C02F5F3F4F2417350751
:1002C0004CF490E080E0873063E09607ACF70000E4
:1002D0000196F9CF08959BB19F7B9BB988B98BB1EB
:1002E00080688BB900008BB18F778BB982E090E08A
:1002F0000E945701089581E00E946B0108958131A9
:1003000020F481580E946B01089581550E946B0171
:10031000089584E690E00E94570188E30E946B01F3
:1003200086E00E946B018FE00E946B0181E00E94D9
:100330006B018AE090E00E94570108959BB19064A0
:100340009BB988B98BB180688BB900008BB18F776E
:100350008BB981E090E00E94570108950F931F939D
:10036000CF93DF93182FC62FD72F0E947B01888150
:10037000882351F001E0010F812F0E947F018991B4
:100380000E949E01102FF3CFDF91CF911F910F910B
:100390000895CF93C82F8A3051F09091C00095FFF7
:1003A000FCCFC093C60090E080E0CF9108958DE02F
:1003B0000E94C901F2CF80B1826080B982B980E227
:1003C0008A95F1F780B18D7F80B982B980E18A95F5
:1003D000F1F790E023C021E030E0092E02C0220FA7
:1003E000331F0A94E2F72095309540911C035091F9
:1003F0001D032423352330931D0320931C0380B158
:10040000846080B982B980E18A95F1F780B18B7FF1
:1004100080B982B980E18A95F1F79F5F9C30A8F49A
:100420000099D9CF41E050E0092E02C0440F551F7A
:100430000A94E2F720911C0330911D03242B352BE5
:1004400030931D0320931C03DACF08958170089523
:100450009695879581700895969587959695879539
:100460008170089596958795969587959695879529
:1004700081700895929582958F7089279F70892742
:100480008170089596958795929582958F708927AA
:100490009F708927817008950024880F991F001C80
:1004A000880F991F001C892F902D81700895880F47
:1004B000892F881F990B919581700895892F8170DC
:1004C000089591FB882780F9089592FB882780F989
:1004D000089593FB882780F90895CF93C0E00BC05F
:1004E00041E060E08C2F0E94B60341E06FE28C2F68
:1004F0000E94B603CF5FC43598F3C0E00BC041E063
:100500006C2F80E00E94B60341E06C2F83E50E94CF
:10051000B603CF5FCF3298F3CF910895CF93DF9397
:10052000D0911101D1500FC041E06C2F8D2F0E944E
:10053000B603CF5F8091100190E00196C8171906AD
:1005400099F394F3DF5F8091110190E00196D81741
:10055000190609F024F4C0911001C150EBCFDF91CE
:10056000CF910895809110018150809310010895DA
:10057000809110018F5F8093100108958091110187
:100580008F5F8093110108958091110181508093B4
:100590001101089586E081B98FEF87B918B88AB93B
:1005A0001BB80E9489010E947B010E943F030E94A8
:1005B0006D0216C00E94B2028EE50E949E0116C016
:1005C0000E94B80286E70E949E0114C00E94BE02EB
:1005D0008EE30E949E0112C00E948E020E94D405EA
:1005E0000E94DB0180911C0384FDE4CF80911C03F9
:1005F00085FDE6CF80911C0387FDE8CF80911C0329
:1006000086FFEACF0E94C4028CE30E949E01E4CFE1
:1006100095B19E7F95B9662329F095B1946095B9FF
:1006200090E00EC095B19B7F95B9FACF25B1277F99
:1006300025B925B1206125B925B12F7E25B99F5F48
:10064000983088F447E050E0491B5109282F30E0EA
:1006500002C0359527954A95E2F720FFE7CF25B1EF
:10066000286025B9E6CF85B1816085B9089560E03D
:100670000E940803089561E00E9408030895CF9343
:10068000DF9384B1816084B984B1826084B984B11C
:10069000846084B984B1886084B984B1806184B98C
:1006A00085B1826085B985B1816085B983EC99E0B7
:1006B0000197F1F700C0000085B18D7F85B98BE50A
:1006C00094E40197F1F700C0000085B1826085B91C
:1006D00085B18E7F85B981E20E94370383E10E9454
:1006E000370386E00E94370382EC0E94370380E2E2
:1006F0000E94370389E00E94370380E80E94370395
:1007000080E40E943703D0E0C0E0C83F91E0D90701
:1007100028F480E00E943B032196F7CF88E00E94F6
:1007200037038CE00E943703DF91CF91089580E872
:100730000E94370380E40E9437031092180310923E
:10074000190390E080E0883F21E0920730F4FC013B
:10075000E05EFE4F10820196F6CF0895882321F0C7
:1007600080E20E943703089584E2FBCF262F26956E
:100770002695269590E034E5239F800D911D112448
:10078000442379F0677021E030E002C0220F331F6C
:100790006A95E2F7FC01E05EFE4F8081822B808348
:1007A0000895677021E030E002C0220F331F6A9580
:1007B000E2F7FC01E05EFE4F209580812823208334
:1007C000089580931A030895FF920F931F93CF9378
:1007D000DF93082F80911A03F82EFF0CFF0CF80E00
:1007E000182F110F110F110F181BD0E02EC0E02F82
:1007F000002E000CFF0BB09720911A038D2F622F53
:100800000E94ED05AF01440F551F440F551FE40F23
:10081000F51FE80FF11DE457FF4F44918C2F0E9404
:10082000ED05E1E0F0E002C0EE0FFF1F8A95E2F770
:100830004E2360911903809118036C0F8D0F0E9455
:10084000B603CF5FC11798F2DF5FDF1510F4C0E089
:10085000F9CFE8E1F3E08081F80E81E08F0D80832D
:10086000843540F010921803E9E1F3E08081180F1D
:100870001F5F108380911903803320F010921803BA
:1008800010921903DF91CF911F910F91FF9008955E
:10089000CF92DF92EF92FF920F931F93CF93DF934C
:1008A000082F192FE62EC42ED22EF12C37C09D2FE3
:1008B0002AC07C2F4F2D50E09A01220F331F240FA6
:1008C000351F200F311F290F311DF901408150E0E4
:1008D00002C0559547957A95E2F741700E94B6039C
:1008E000CF5FC830A8F48D2F880F880F880F8E0D2A
:1008F0008C0F8435A8F76C2D6F0D603388F7DD20E1
:10090000B1F292E09D1BD110D4CF77E07C1BD2CF07
:10091000DF5FD33010F4C0E0E4CFF394F3E1FF15D0
:1009200010F0D0E0F6CFDF91CF911F910F91FF90A3
:10093000EF90DF90CF9008958F929F92AF92BF92E9
:10094000CF92DF92EF92FF920F931F93CF93DF939B
:1009500000D000D000D0CDB7DEB7F82EE62EB42EF2
:100960002E830D83842F90E0B0E0A0E089839A83EA
:10097000AB83BC83BC01CD010E949A06862E972EC4
:10098000A82E192F9E81892F90E0B0E0A0E08983E6
:100990009A83AB83BC83BC01CD010E949A06C62E0C
:1009A000D72E082F9E83262F372F482F592F898225
:1009B0009A82AB821C8369817A818B819C810E949F
:1009C000F90520E030E040E252E469837A838B83CA
:1009D0009C8369817A818B819C810E94280769832D
:1009E0007A838B839C8369817A818B819C810E942D
:1009F0006B06162FBB2019F0611101C011E09D811B
:100A0000892F90E0B0E0A0E089839A83AB83BC8318
:100A1000BC01CD010E949A062C2D3D2D402F5E81F8
:100A200069837A838B839C8369817A818B819C81A2
:100A30000E94F90520E030E040E252E469837A83C5
:100A40008B839C8369817A818B819C810E9428079A
:100A500069837A838B839C8369817A818B819C8172
:100A60000E946B06062FAD81AA2319F0611101C007
:100A700001E01D824DC02981222389F0273279F0BF
:100A800041E06D816E0D822F8F0D0E94B60307C06D
:100A900041E06D816E0D89818F0D0E94B6035981F1
:100AA0005F5F59838981883280F5BD81BB2319F34B
:100AB000B43009F34981141758F7842F90E0473276
:100AC00039F3A12FA00FBB27BB1FA817B907ACF0A4
:100AD0008D818170BD81B0FD03C0298120FF05C0DB
:100AE000882359F0498140FF08C041E06D816E0DB7
:100AF00089818F0D0E94B603D2CF40E06D816E0DCB
:100B000089818F0D0E94B603CACF9D819F5F9D830F
:100B1000AD81A53010F41982C5CF26960FB6F89492
:100B2000DEBF0FBECDBFDF91CF911F910F91FF9020
:100B3000EF90DF90CF90BF90AF909F908F900895EF
:100B4000CF93DF93C82FD92F8881882321F0219656
:100B50000E94E403F9CFDF91CF91089580931803A9
:100B6000609319030895CF93DF9310921803D091E7
:100B70001A0381508D9FD02D1124DD0FDD0FDD0F65
:100B8000D0931903611104C0DF91CF910895DF5F05
:100B9000D033D0F7C0E0C435D0F740E06D2F8C2FB4
:100BA0000E94B603CF5FF7CFCF93DF9380E80E9418
:100BB000370380E40E943703D0E0C0E0C83F81E003
:100BC000D80740F4FE01E05EFE4F80810E943B03A7
:100BD0002196F4CFDF91CF910895991B79E004C05D
:100BE000991F961708F0961B881F7A95C9F780956C
:100BF00008950E940D060C94EE060E94E70658F038
:100C00000E94E00640F029F45F3F29F00C94D706DB
:100C100051110C9422070C94DD060E94FF0668F324
:100C20009923B1F3552391F3951B550BBB27AA27A5
:100C300062177307840738F09F5F5F4F220F331FDF
:100C4000441FAA1FA9F335D00E2E3AF0E0E832D0A7
:100C500091505040E695001CCAF72BD0FE2F29D0AA
:100C6000660F771F881FBB1F261737074807AB077C
:100C7000B0E809F0BB0B802DBF01FF2793585F4FF1
:100C80003AF09E3F510578F00C94D7060C94220759
:100C90005F3FE4F3983ED4F3869577956795B795D3
:100CA000F7959F5FC9F7880F911D9695879597F9DE
:100CB0000895E1E0660F771F881FBB1F6217730757
:100CC0008407BA0720F0621B730B840BBA0BEE1F6C
:100CD00088F7E09508950E94070788F09F5798F0DD
:100CE000B92F9927B751B0F0E1F0660F771F881F31
:100CF000991F1AF0BA95C9F714C0B13091F00E944B
:100D00002107B1E008950C942107672F782F8827D9
:100D1000B85F39F0B93FCCF3869577956795B39571
:100D2000D9F73EF490958095709561957F4F8F4FE0
:100D30009F4F0895E89409C097FB3EF490958095E5
:100D4000709561957F4F8F4F9F4F9923A9F0F92F91
:100D500096E9BB279395F695879577956795B7950F
:100D6000F111F8CFFAF4BB0F11F460FF1BC06F5FF5
:100D70007F4F8F4F9F4F16C0882311F096E911C007
:100D8000772321F09EE8872F762F05C0662371F028
:100D900096E8862F70E060E02AF09A95660F771F3C
:100DA000881FDAF7880F9695879597F9089597F930
:100DB0009F6780E870E060E008959FEF80EC089501
:100DC00000240A941616170618060906089500242A
:100DD0000A9412161306140605060895092E0394A4
:100DE000000C11F4882352F0BB0F40F4BF2B11F418
:100DF00060FF04C06F5F7F4F8F4F9F4F089557FD77
:100E00009058440F551F59F05F3F71F04795880F78
:100E100097FB991F61F09F3F79F08795089512160F
:100E200013061406551FF2CF4695F1DF08C01616BB
:100E300017061806991FF1CF86957105610508946C
:100E40000895E894BB2766277727CB0197F9089583
:100E50000E943B070C94EE060E94E00638F00E94C8
:100E6000E70620F0952311F00C94D7060C94DD06CC
:100E700011240C9422070E94FF0670F3959FC1F382
:100E8000950F50E0551F629FF001729FBB27F00D38
:100E9000B11D639FAA27F00DB11DAA1F649F66278D
:100EA000B00DA11D661F829F2227B00DA11D621FDC
:100EB000739FB00DA11D621F839FA00D611D221F96
:100EC000749F3327A00D611D231F849F600D211D7A
:100ED000822F762F6A2F11249F5750409AF0F1F0FD
:100EE00088234AF0EE0FFF1FBB1F661F771F881F66
:100EF00091505040A9F79E3F510580F00C94D706C1
:100F00000C9422075F3FE4F3983ED4F386957795DF
:100F10006795B795F795E7959F5FC1F7FE2B880F0B
:0E0F2000911D9695879597F90895F894FFCF47
:100F2E0032000000320000003200000032000000EB
:100F3E0018300000000200000000C901000000008F
:100F4E000000000000000000000000000000000093
:100F5E000000000000000000000000000000000083
:100F6E000000000000000000000000000000000073
:100F7E000000000000000000000000000000000063
:100F8E000000000000000000000000000000000053
:100F9E000000000000000000000000000000000043
:100FAE000000000000000000000000000000000033
:100FBE000000000000000000000000000000000023
:100FCE000000000000000000000000000000000013
:100FDE000000000000000000000000000000000003
:100FEE0000000000000000000000000000000000F3
:100FFE0000000000000000000000000000000000E3
:10100E0000000000000000000000000000000000D2
:10101E0000000000000000000000000000000000C2
:10102E0000000000000000000000000000000000B2
:10103E0000000000000000000000000000000000A2
:10104E000000000000000000000000000000000092
:10105E000000000000000000000000000000000082
:10106E000000000000000000000000000000000072
:10107E000000000000000000000000000000000062
:10108E000000000000000000000000000000000052
:10109E000000000000000000000000000000000042
:1010AE000000000000000000000000000000000032
:1010BE000000000000000000000000000000000022
:1010CE000000000000000000000000000000000012
:1010DE000000000000000000000000000000000002
:1010EE0000000000000000000000000000000000F2
:1010FE0000000000000000000000000000000000E2
:10110E0000000000000000000000000000000000D1
:10111E0000000000000000000000000000000000C1
:10112E0000000000000000000000000000000000B1
:0C113E00000000000000000000000100A4
:00000001FF
